:060000000A128A110E280D
:10000800FE00030EFB000408FC000A08FD000A12AB
:100018008A11A1290A128A11112883132030840019
:1000280030300A128A117A230A128A1183010A12BD
:100038008A117D2A4130831203139F00831603130C
:100048009F018316031788018901C02883160317A7
:100058000814831603130514F3281F08C33904383A
:100068009F00831603178814831603138514F32837
:100078001F08C33908389F0083160317081583160D
:1000880003130515F3281F08C3390C389F0083167E
:1000980003178815831603138515F3281F08C3391A
:1000A80010389F0083160317081683160313851646
:1000B800F3281F08C33914389F00831603178816BE
:1000C800831603130914F3281F08C33918389F002F
:1000D800831603170817831603138914F3281F08B8
:1000E800C3391C389F008316031788178316031318
:1000F8000915F3281F08C33920389F0083160317F2
:100108000914831603130615F3281F08C339243866
:100118009F00831603178914831603138615F32883
:100128001F08C33928389F0083160317091583163B
:1001380003138614F3281F08C3392C389F0083162D
:1001480003178915831603130616F3281F08C339E6
:1001580030389F00831603170916831603130614F5
:10016800F3281F08C33934389F00831603178916EC
:10017800831603138616F328831203133108003AF3
:100188000319C728F3283008003A03192A28013A26
:1001980003193128033A03193C28013A031947285F
:1001A800073A03195228013A03195D28033A03193B
:1001B8006828013A031973280F3A03197E28013A6F
:1001C80003198928033A03199428013A03199F2827
:1001D800073A0319AA28013A0319B528F328080091
:1001E80065293F3083120313A0000030A1009C2929
:1001F800033083120313A0000030A1009C295E3055
:1002080083120313A0000030A1009C294F308312F1
:100218000313A0000030A1009C296330831203134C
:10022800A0000030A1009C296D3083120313A000A8
:100238000030A1009C297D3083120313A0000030F8
:10024800A1009C29073083120313A0000030A100ED
:100258009C297F3083120313A0000030A1009C2941
:10026800673083120313A0000030A1009C29773067
:1002780083120313A0000030A1009C297930831257
:100288000313A0000030A1009C293C308312031303
:10029800A0000030A1009C295B3083120313A0004A
:1002A8000030A1009C297C3083120313A000003089
:1002B800A1009C29743083120313A0000030A10010
:1002C8009C297A08003A03196A29F5287908003A1E
:1002D8000319F528013A0319FC28033A03190329DD
:1002E800013A03190A29073A03191129013A03198E
:1002F8001829033A03191F29013A031926290F3A25
:1003080003192D29013A03193429033A03193B2902
:10031800013A03194229073A03194929013A0319ED
:100328005029033A03195729013A03195E29F52878
:100338002108FA002008F9000800831203130C1F93
:10034800A629A729DF290A128A1170230A128A11FD
:10035800710883120313AB007008AA001030F00074
:100368000030F1002B08F3002A08F2000A128A1163
:1003780016220A128A117108FA007008F9000A1286
:100388008A11F4200A128A117A0883120313A90029
:100398007908A8000F302A05F90000302B05FA006B
:1003A8000A128A11F4200A128A117A088312031396
:1003B800A7007908A6000B1CE229E329F329061BEC
:1003C800E629E729EB290130AE000030AF00861B93
:1003D800EE29EF29F3290130AC000030AD000B1DE8
:1003E800F629F7290A2A081CFA29FB29002A0810E5
:1003F800260887008814082A881C032A042A082A41
:100408008810280887000814C13081000B110C13CC
:100418000B107D088A007C0884007B0E8300FE0E8A
:100428007E0E0900F601F11F1A2A1B2A222AF0095A
:10043800F109F00A0319F10AF601F60AF31F252A51
:10044800262A2F2AF209F309F20A0319F30A0130BE
:10045800F4007408F606F701F8017008710403192E
:10046800362A372A6E2AF501F50A452A0130031083
:10047800F00DF10DFF3E031D3B2A0130F400740816
:10048800F507F11F482A492A3A2A01300310F70DC7
:10049800F80DFF3E031D4A2A71087302031D562AF0
:1004A80070087202031C592A5A2A612A7008F2023B
:1004B8007108031CF303F302771401300310F10CE5
:1004C800F00CFF3E031D622A0130F502031D6D2A60
:1004D8006E2A492A76080319722A732A782AF70994
:1004E800F809F70A0319F80A7808F1007708F00004
:1004F80008000A128A112E230A128A118312031382
:100508009F18872A882A952A823083120313B400F9
:10051800DD30B300B30B8E2AB40B8E2A831203137B
:100528009F14061F982A992AAA2A2E032F04031D0E
:100538009E2A9F2AAA2A0130A4070318A50A003078
:10054800A50724088600AE01AF01BE2A861FAD2A82
:10055800AE2ABE2A2C032D04031DB32AB42ABE2AB0
:10056800FF30A4070318A50AFF30A5072408860052
:10057800AC01AD012B08803AB3002508803A33025C
:10058800031DC82A24082A02031CCB2ACC2AD02AF5
:10059800831203138817822A831203138813822A6B
:1005A8000A128A110E2883120313B2000B2B83162A
:1005B80003130614151416142D2B8316031386140F
:1005C800951496142D2B8316031306151515161559
:1005D8002D2B831603138615951596152D2B83162B
:1005E80003130616151616162D2B831603138616D7
:1005F800951696162D2B831603130617151716171F
:100608002D2B831603138617951796172D2B320853
:10061800B000B1013108003A0319132B2D2B300813
:10062800003A0319DB2A013A0319E12A033A0319AC
:10063800E72A013A0319ED2A073A0319F32A013A7E
:100648000319F92A033A0319FF2A013A0319052B5A
:100658002D2B08006130831603138F00E8308B00C0
:1006680040308C00003083120313B000B1000A122E
:100678008A111E200A128A1105308316031381007D
:10068800C1308312031381008316031386010630D9
:100698000A128A11D7220A128A1107300A128A11FD
:1006A800D7220A128A11831603138701880183123D
:1006B8000313850186018701880108148901AE01A9
:1006C800AF01AC01AD01AA01AB01A801A901A601C6
:1006D800A701A401A5010800831203131E08F20054
:1006E800F3017208F0007308F1000800640080014B
:0C06F800840A04060319003404067B2B5E
:08400000FF3FFF3FFF3FFF3FC0
:04400E00D420FF3F7C
:00000001FF
